:020000040800F2
:1000000000500020753E00081D0300081F03000873
:100010002103000823030008250300080000000056
:10002000000000000000000000000000213C00086B
:100030002703000800000000C13C00082903000855
:10004000BD3E0008BD3E0008BD3E0008BD3E0008A4
:10005000BD3E0008BD3E0008BD3E0008BD3E000894
:10006000BD3E0008BD3E0008BD3E0008410300083B
:10007000BD3E0008BD3E0008BD3E0008BD3E000874
:10008000BD3E0008BD3E000851030008BD3E00080B
:10009000BD3E0008BD3E0008BD3E0008BD3E000854
:1000A000BD3E0008BD3E0008BD3E0008BD3E000844
:1000B000BD3E0008BD3E0008BD3E0008BD3E000834
:1000C000BD3E0008BD3E0008BD3E0008BD3E000824
:1000D000BD3E000861030008BD3E0008BD3E0008AB
:1000E000BD3E0008BD3E0008BD3E00080000000007
:1000F0000000000000000000000000000000000000
:0C01000000000000000000005FF808F1A3
:100110000348044B834202D0034B03B11847704796
:100120001000002010000020000000000548064BD1
:100130001B1AD90F01EBA301491002D0034B03B1E5
:100140001847704710000020100000200000000039
:1001500010B5064C237843B9FFF7DAFF044B13B10F
:100160000448AFF300800123237010BD100000206D
:1001700000000000343F000808B5054B1BB10549DD
:100180000548AFF30080BDE80840FFF7CFBF00BFD0
:100190000000000014000020343F000872B6FEE7A3
:1001A00000B595B0282200210DEB020003F0BAFE45
:1001B00000230593069307930893099301930293F1
:1001C0000393049301220A924FF480330B930E920F
:1001D0000222119212934FF4E01313930AA800F035
:1001E00065F9C8B90F2305930221069100230793EF
:1001F0004FF480620892099305A800F089FB68B962
:10020000022301934FF40043039301A800F05CFC28
:1002100030B915B05DF804FBFFF7C0FFFFF7BEFF74
:10022000FFF7BCFF08B500F0F3F8FFF7B9FF00F0E7
:1002300013F801F0EDFB01F015F8064801F0C2FAE1
:1002400001F000FC03F0C2FA02F018F803F0E0FA43
:10025000FEE700BF30000020F0B589B00024049410
:100260000594069407942A4B9A6942F010029A6109
:100270009A6902F010020092009A9A6942F02002F4
:100280009A619A6902F020020192019A9A6942F0F9
:1002900008029A619A6902F008020292029A9A6927
:1002A00042F004029A619B6903F004030393039BE9
:1002B000184F22464FF40051384600F016FE164DF6
:1002C00022464FF48071284600F00FFE4FF4005391
:1002D00004930126059606940323079304A9384640
:1002E00000F0EAFC302304930594069404A9284600
:1002F00000F0E2FC4FF48073049305960694022309
:10030000079304A9284600F0D7FC09B0F0BD00BF50
:100310000010024000100140000C0140FEE7FEE723
:10032000FEE7FEE7FEE7704708B500F083F802F04D
:10033000DDFF012800D108BD03F0E4FCFBE700006D
:1003400008B5024800F07EFE08BD00BF6000002036
:1003500008B5024801F0D1F808BD00BF3000002008
:1003600008B5024801F0DAFD08BD00BFA400002076
:1003700000B583B0114B9A6942F001029A619A6903
:1003800002F001020092009ADA6942F08052DA61CA
:10039000DB6903F080530193019B00220F216FF072
:1003A000010000F003FF064A536823F0E06343F0C6
:1003B0000073536003B05DF804FB00BF00100240FF
:1003C0000000014010B504460E4B1A784FF47A73C2
:1003D000B3FBF2F30C4A1068B0FBF3F000F02CFF13
:1003E00068B90F2C01D901200AE0002221464FF004
:1003F000FF3000F0DBFE054B1C60002000E0012018
:1004000010BD00BF000000200800002004000020F4
:1004100008B5074A136843F010031360032000F087
:10042000B3FE0F20FFF7CEFFFFF7A2FF002008BDAD
:1004300000200240034A1168034B1B780B441360F1
:10044000704700BF2C00002000000020014B1868FE
:10045000704700BF2C00002038B50446FFF7F6FFB8
:100460000546B4F1FF3F02D0044B1B781C44FFF754
:10047000EDFF401BA042FAD338BD00BF00000020B2
:1004800082B0084B1B68084AA2FB03235B0A00FBEF
:1004900003F3019300BF019B5A1E0192002BF9D177
:1004A00002B0704708000020D34D6210002800F011
:1004B000F18170B582B00446036813F0010F2CD0AF
:1004C000994B5B6803F00C03042B1DD0964B5B68C3
:1004D00003F00C03082B12D06368B3F5803F41D0C2
:1004E000002B55D103F1804303F504331A6822F43D
:1004F00080321A601A6822F480221A6037E08A4B30
:100500005B6813F4803FE7D0874B1B6813F4003F10
:1005100003D06368002B00F0BF81236813F0020F43
:1005200075D0814B5B6813F00C0F5FD07E4B5B681E
:1005300003F00C03082B54D02369002B00F08A80B1
:100540007A4B01221A60FFF781FF0546764B1B6844
:1005500013F0020F75D1FFF779FF401B0228F5D980
:1005600003209EE1704A136843F48033136063688C
:1005700043B3FFF76BFF05466B4B1B6813F4003F5B
:10058000CBD1FFF763FF401B6428F5D9032088E136
:10059000B3F5A02F09D0644B1A6822F480321A6098
:1005A0001A6822F480221A60E1E703F18043A3F580
:1005B0003C331A6842F480221A601A6842F480328E
:1005C0001A60D4E7FFF742FF0546574B1B6813F448
:1005D000003FA2D0FFF73AFF401B6428F5D9032063
:1005E0005FE1514B5B6813F4803FA5D14E4B1B6814
:1005F00013F0020F03D02369012B40F04F814A4AC8
:10060000136823F0F803616943EAC10313602368A8
:1006100013F0080F33D0A369002B5CD0434B0122A9
:10062000C3F88024FFF712FF05463F4B5B6A13F0C7
:10063000020F21D1FFF70AFF401B0228F5D9032042
:100640002FE1394A136823F0F803616943EAC103D3
:100650001360DCE7354B00221A60FFF7F7FE054612
:10066000314B1B6813F0020FD1D0FFF7EFFE401B98
:100670000228F5D9032014E10120FFF701FF2368C8
:1006800013F0040F00F09680274BDB6913F0805FB6
:1006900034D1254BDA6942F08052DA61DB6903F02C
:1006A00080530193019B0125214B1B6813F4807F2C
:1006B00026D0E368012B3DD0002B53D103F18043BA
:1006C00003F504331A6A22F001021A621A6A22F050
:1006D00004021A6233E0154B0022C3F88024FFF7AE
:1006E000B5FE0546104B5B6A13F0020FC7D0FFF74B
:1006F000ADFE401B0228F5D90320D2E00025D3E748
:100700000B4A136843F480731360FFF79FFE06469D
:10071000074B1B6813F4807FCBD1FFF797FE801B3C
:100720006428F5D90320BCE00010024000004242DA
:10073000007000405F4A136A43F001031362E368EC
:1007400033B3FFF783FE06465A4B1B6A13F0020FC2
:100750002FD1FFF77BFE801B41F288339842F3D9FB
:1007600003209EE0052B09D0524B1A6A22F00102A9
:100770001A621A6A22F004021A62E0E74D4B1A6A02
:1007800042F004021A621A6A42F001021A62D6E7C3
:10079000FFF75CFE0646474B1B6A13F0020F08D0BA
:1007A000FFF754FE801B41F288339842F3D90320AF
:1007B00077E0E5B9E369002B72D03E4A526802F057
:1007C0000C02082A56D0022B17D03B4B00221A6687
:1007D000FFF73CFE0446374B1B6813F0007F47D001
:1007E000FFF734FE001B0228F5D9032059E0314AF7
:1007F000D36923F08053D361DCE72F4B00221A66C4
:10080000FFF724FE05462B4B1B6813F0007F06D034
:10081000FFF71CFE401B0228F5D9032041E0236AA4
:10082000B3F5803F1AD023494B6823F47413226A2E
:10083000606A024313434B601F4B01221A66FFF7A5
:1008400005FE04461B4B1B6813F0007F0ED1FFF71B
:10085000FDFD001B0228F5D9032022E0154A53684C
:1008600023F40033A1680B435360DCE7002018E059
:10087000002016E0012B16D00E4B5B6803F480318C
:10088000226A914211D103F47013626A93420ED12D
:10089000002006E001207047012002E0012000E076
:1008A000002002B070BD0120FBE70120F9E7012024
:1008B000F7E700BF00100240000042420F4B5B68A8
:1008C00003F00C02082A01D00D487047C3F383429D
:1008D0000C49885C13F4803F0BD0084B5B68C3F372
:1008E0004043094AD35C064A02FB00F0B0FBF3F038
:1008F0007047064B03FB00F0704700BF001002403A
:1009000000127A004C3F00085C3F000800093D00DF
:10091000002800F0A08070B50D460446524B1B68BD
:1009200003F007038B420BD24F4A136823F00703EF
:100930000B431360136803F007038B4240F08D8074
:10094000236813F0020F17D013F0040F04D0474AA6
:10095000536843F4E0635360236813F0080F04D036
:10096000424A536843F460535360404A536823F04B
:10097000F003A1680B435360236813F0010F31D0DB
:100980006368012B20D0022B25D0384A126812F060
:10099000020F64D035494A6822F0030213434B60CA
:1009A000FFF754FD0646314B5B6803F00C036268A9
:1009B000B3EB820F16D0FFF749FD801B41F288335D
:1009C0009842F0D9032045E0284A126812F4003F0B
:1009D000E0D101203EE0254A126812F0007FD9D113
:1009E000012037E0204B1B6803F00703AB420AD914
:1009F0001D4A136823F007032B431360136803F0A9
:100A00000703AB422DD1236813F0040F06D0174A19
:100A1000536823F4E063E1680B435360236813F0E9
:100A2000080F07D0114A536823F46053216943EA41
:100A3000C1035360FFF742FF0C4B5B68C3F3031322
:100A40000B4AD35CD8400B4B18600B4B1868FFF770
:100A5000B9FC002070BD012070470120FAE7012099
:100A6000F8E70120F6E700BF002002400010024036
:100A7000743F00080800002004000020014B1868A3
:100A8000704700BF0800002008B5FFF7F7FF044BD0
:100A90005B68C3F30223034AD35CD84008BD00BFA0
:100AA00000100240843F000808B5FFF7E7FF044B41
:100AB0005B68C3F3C223034AD35CD84008BD00BFC0
:100AC00000100240843F000870B582B004460368FD
:100AD00013F0010F36D03F4BDB6913F0805F49D133
:100AE0003C4BDA6942F08052DA61DB6903F08053F3
:100AF0000193019B0125384B1B6813F4807F3BD089
:100B0000344B1B6A13F4407313D0626802F44072D2
:100B10009A420ED02F4A136A23F440702F490126BF
:100B2000C1F840640026C1F84064106213F0010F60
:100B300036D1284A136A23F4407361680B43136269
:100B4000002D3ED1236813F0020F06D0214A5368CE
:100B500023F44043A1680B435360236813F0100F44
:100B600034D01C4A536823F48003E1680B4353607C
:100B700000202CE00025BEE7174A136843F4807379
:100B80001360FFF763FC0646134B1B6813F4807F6A
:100B9000B6D1FFF75BFC801B6428F5D9032016E073
:100BA000FFF754FC06460B4B1B6A13F0020FC0D133
:100BB000FFF74CFC801B41F288339842F3D90320A5
:100BC00005E0D36923F08053D361BBE7002002B076
:100BD00070BD00BF001002400070004000004242A3
:100BE00008B502284ED0102803D0012828D00020B4
:100BF00008BD2B4B5A68186810F08070F8D0C2F30B
:100C000083432849C85C12F4803F15D0244B5B68AD
:100C1000C3F34043244AD25C244BB3FBF2F303FBFF
:100C200000F01F4B5B6813F4800FE1D14000204BB4
:100C3000A3FB00304008DBE71E4B03FB00F0F0E7AE
:100C4000174B1B6A40F202321A40B2F5817F24D062
:100C500003F44073B3F5007F04D0B3F5407F09D0AF
:100C60000020C5E70E4A526A12F0020FF5D049F68D
:100C70004040BDE70A4B186810F40030B8D04FF27E
:100C80002440B5E7FFF710FF054B5B68C3F38133E2
:100C900001335B00B0FBF3F0AAE74FF40040A7E795
:100CA00000100240603F0008703F000800127A0008
:100CB000ABAAAAAA00093D0070B582B00024A446E0
:100CC000A6E0804DAB4210D007D97F4DAB420CD08F
:100CD00005F58035AB4208D013E0A5F58015AB4291
:100CE00003D005F57025AB4207D18B68002B58D097
:100CF000012B51D04261082403E0A5F58015AB42D9
:100D0000F3D0BEF1FF0F4ED80646BEF1FF0F4CD810
:100D10004FEA8C0233680F25954023EA050304FA55
:100D200002F2134333604B6813F0805F6ED0674B61
:100D30009A6942F001029A619B6903F001030193F1
:100D4000019B4FEA9C02951C614B53F825600CF007
:100D50000305AD000F23AB4026EA03065D4B984226
:100D600029D003F58063984200F08E8003F58063FC
:100D7000984200F08B8003F58063984219D00423D9
:100D80001AE0CC68BDE7CC680434BAE7CC68083414
:100D9000B7E7CC680C34B4E702610824B1E700245B
:100DA000AFE70424ADE7061DAFE7ACF108029200FF
:100DB000B0E7032300E00023AB4033430232444D4D
:100DC00045F822304B6813F4801F61D0424A936883
:100DD00043EA0E0393604B6813F4001F5ED03E4A53
:100DE000D36843EA0E03D3604B6813F4003F5BD033
:100DF000394A536843EA0E0353604B6813F4803F4B
:100E000058D0354A136843EA0E0313600CF1010C05
:100E10000B6833FA0CF253D0012202FA0CF203EA07
:100E2000020E32EA0303F1D14B68122B3FF649AFB1
:100E3000122B3FF666AF01A555F823F0EB0C000826
:100E4000830D00088D0D00089F0D0008030D00089C
:100E5000030D0008030D0008030D0008030D000832
:100E6000030D0008030D0008030D0008030D000822
:100E7000030D0008030D0008030D0008030D000812
:100E8000870D0008930D0008012395E7022393E7DF
:100E9000114A936823EA0E0393609CE70E4AD368D5
:100EA00023EA0E03D3609FE70B4A536823EA0E033D
:100EB0005360A2E7084A136823EA0E031360A5E70C
:100EC00002B070BD0000221000003110001002407E
:100ED00000000140000801400004014083681942FD
:100EE00001D001207047002070470AB101617047AE
:100EF000090401617047000060B310B40246016844
:100F0000154B0B441548A0FB03031B099B001364FE
:100F1000134BD363022382F82130086820F47F50FA
:100F200020F03000536894682343D4682343146945
:100F300023435469234394692343D46923430343DC
:100F40000B6000209063012382F8213082F820009A
:100F500010BC704701207047F8FFFDBFCDCCCCCC52
:100F600000000240034690F82120D2B2022A06D0A7
:100F700004228263002280F820200120704701684B
:100F80000A6822F00E020A6001680A6822F0010273
:100F90000A60026CC06B012101FA02F2426083F820
:100FA0002110002083F820007047000008B590F859
:100FB0002130DBB2022B03D004238363012008BD60
:100FC0000268136823F00E0313600268136823F0AD
:100FD000010313600368194A934214D014329342F8
:100FE0001FD0143293421ED0143293421ED01432BA
:100FF00093421ED01432934202D04FF0807203E02D
:101000004FF4801200E001220D4B5A60012380F85A
:101010002130002380F82030436B6BB198470020CB
:10102000CDE71022F0E74FF48072EDE74FF48052E5
:10103000EAE74FF48032E7E70020C0E7080002400B
:101040000000024038B5C36B1A6804682568016C5B
:1010500004238B40134235D015F0040F32D023689F
:1010600013F0200F03D1236823F0040323600368E7
:10107000434A934214D01432934218D0143293420C
:1010800017D01432934217D01432934217D014322F
:10109000934202D04FF0806203E04FF4800200E000
:1010A0000422384B5A60C36A03B1984738BD4022C6
:1010B000F7E74FF48062F4E74FF48042F1E74FF432
:1010C0008022EEE702238B4013423CD015F0020F42
:1010D00039D0236813F0200F06D1236823F00A03C8
:1010E0002360012380F821300368254A934214D0FD
:1010F000143293421CD0143293421BD014329342C8
:101100001BD0143293421BD01432934202D04FF0C2
:10111000007203E04FF4001200E00222194B5A6003
:10112000002380F82030836A002BBFD09847BDE7AA
:101130002022F3E74FF40072F0E74FF40052EDE79E
:101140004FF40032EAE708238B401342AED015F08B
:10115000080FABD0236823F00E032360026CC16B31
:10116000012303FA02F24A60836380F821300023EE
:1011700080F82030036B002B98D0984796E700BF8B
:101180000800024000000240074AD36823F4E063ED
:101190001B041B0C000200F4E060034343F0BF6338
:1011A00043F40033D360704700ED00E000B5194B05
:1011B000DB68C3F30223C3F1070CBCF1040F28BFA3
:1011C0004FF0040C03F1040EBEF1060F18D9033BD7
:1011D0004FF0FF3E0EFA0CFC21EA0C0199400EFA8A
:1011E00003FE22EA0E020A4300280BDB1201D2B2F0
:1011F00000F1604000F5614080F800235DF804FBD9
:101200000023E5E700F00F001201D2B2024B1A549E
:10121000F4E700BF00ED00E014ED00E0002807DB7C
:1012200000F01F02400901239340024A42F8203097
:10123000704700BF00E100E00138B0F1807F0BD2C1
:101240004FF0E0235861054AF02182F82310002076
:10125000986107221A6170470120704700ED00E095
:101260007047000000B585B00023019302930393FB
:101270001148124A026083600122027303754FF421
:101280006021C1614360026100F03CFB68B9092341
:101290000193012302930023039301A9064800F060
:1012A000ADF928B905B05DF804FBFEF777FFEEE76E
:1012B000FEF774FFF6E700BF300000200024014075
:1012C00010B586B00023029303930493059302683C
:1012D000224B9A4201D006B010BD044603F56C4380
:1012E0009A6942F400729A619A6902F4007200925B
:1012F000009A9A6942F008029A619B6903F0080318
:101300000193019B022302930323039302A9144830
:10131000FFF7D2FC1348144B036000234360836043
:101320008022C2604FF4007202614FF40062426199
:1013300020228261C361FFF7DFFD58B9094B2362A8
:101340005C62002205211220FFF730FF1220FFF718
:1013500065FFC0E7FEF722FFF0E700BF0024014071
:10136000000C01406000002008000240F0B583B08E
:1013700005460C4600230193FFF768F82B689A682E
:1013800012F4807F23D107465A6812F4807F03D17C
:10139000DB6A13F4700F29D0504B1E680220FFF750
:1013A0001FFCB6FBF0F62B6819694D4A114236D185
:1013B000D96802F15C42114231D11969494A11429E
:1013C00040D1DA68484B1A423ED0292341E0AB6A4B
:1013D00043F02003AB62002385F82430012003B0E2
:1013E000F0BD2B681B6813F0020F0FD02B681B6831
:1013F00013F0020F4FD1B4F1FF3FF7D0002CF0D023
:10140000FFF724F8C31BA342F0D9EAE7AB6A43F025
:101410000403AB62002385F824300320DFE7196959
:10142000304A114204D1D96802F16E4211420DD006
:1014300019692E4A0A405AB9DA682C4B13405BB13D
:10144000FC2306E0292304E0142302E0542300E0F7
:10145000FC2303FB06F607E05423FAE7019BB342A3
:1014600010D3019B01330193019BB34213D2B4F11A
:10147000FF3FF6D0002CF1D0FEF7E8FFC01BA042E2
:10148000EFD9EBE7AB6A43F00403AB62002385F8C6
:1014900024300320A3E72B686FF012021A60AB6AB6
:1014A00043F40073AB622B689B6803F46023B3F5CD
:1014B000602F01D0002092E7287B60B9AB6A23F44B
:1014C0008073AB62AB6A13F4805F88D1AB6A43F080
:1014D0000103AB6283E7002081E700BF0800002022
:1014E00024499224922449129224490049922400CA
:1014F0000368D86C70477047704770B5044603683E
:101500001E685D6815F0200F17D016F0020F14D07A
:10151000826A12F0100F03D1826A42F40072826272
:101520009A6802F46022B2F5602F33D02046FFF7AC
:10153000E2FF23686FF012021A6015F0800F22D0CC
:1015400016F0040F1FD0A36A13F0100F03D1A36A83
:1015500043F40053A3622268936803F4E043B3F5B5
:10156000E04F2ED0536813F4806F05D1936803F4D5
:101570006023B3F5602F21D0204600F047FA23689E
:101580006FF00C021A6015F0400F02D016F0010F38
:1015900028D170BD227B002AC8D15A6822F02002CF
:1015A0005A60A36A23F48073A362A36A13F4805F72
:1015B000BCD1A36A43F00103A362B7E7237B002BEE
:1015C000DAD1536823F080035360A36A23F4805375
:1015D000A362A36A13F4807FCED1A36A43F0010310
:1015E000A362C9E7A36A43F48033A3622046FFF7EE
:1015F00083FF23686FF001021A60CAE730B482B03B
:101600000022019290F82420012A00F08F800346E6
:10161000012280F824204A68062A2DD80468606BCD
:1016200002EB8202053A4FF01F0C0CFA02FC20EA92
:101630000C000D6805FA02F2024362630A68092A87
:1016400038D91C68E06802EB42021E3A4FF0070CE2
:101650000CFA02FC20EA0C008D6805FA02F2024343
:10166000E2600A68103A012A34D90020002283F887
:10167000242002B030BC70470C2A0DD80568286BB6
:1016800002EB8202233A1F24944020EA04000C68F3
:10169000944020432863D1E70568E86A02EB8202A0
:1016A000413A1F24944020EA04000C6894402043EF
:1016B000E862C3E71C68206902EB42024FF0070CA6
:1016C0000CFA02FC20EA0C008D6805FA02F20243D3
:1016D0002261C6E71A681648824205D09A6A42F02B
:1016E00020029A620120C1E7906810F4000F1BD11C
:1016F000906840F4000090600A68102A01D0002031
:10170000B4E70C4A12680C49A1FB0212920C02EBDE
:1017100082025200019202E0019A013A0192019A7A
:10172000002AF9D10020A1E700209FE70220A0E7CE
:10173000002401400800002083DE1B4330B583B045
:101740000023019303689A6812F0010F33D1044615
:101750009A6842F001029A60184B1B68184AA2FB73
:1017600003239B0C019302E0019B013B0193019B2E
:10177000002BF9D1FEF76AFE054623689B6813F03B
:10178000010F16D1FEF762FE431B022BF5D9236829
:101790009B6813F0010FF0D1A36A43F01003A3621A
:1017A000E36A43F00103E362002384F8243001205C
:1017B00002E0002000E0002003B030BD080000205F
:1017C00083DE1B4390F82430012B68D010B504460B
:1017D000012380F82430FFF7B1FF00285BD1A36A12
:1017E00023F4407323F0010343F48073A36223685E
:1017F0002C4A934227D0A26A22F48012A2625A682D
:1018000012F4806F05D0A26A22F4405242F4805252
:10181000A262A26A12F4805F2BD0E26A22F0060272
:10182000E262002284F824206FF002021A6023682A
:101830009A6802F46022B2F5602F1DD09A6842F4D3
:1018400080129A602AE0A2F58062526812F4702F2A
:10185000D1D0A26A42F48012A262134A526812F4F2
:10186000806FD6D0A26A22F4405242F48052A26223
:10187000CFE70022E262D4E70A4A934204D09A6892
:1018800042F4A0029A6009E0A2F58062526812F464
:10189000702FD3D1F3E7002384F8243010BD022049
:1018A000704700BF002801400024014038B503689C
:1018B0009A6812F0010F01D1002038BD04469A68E1
:1018C00022F001029A60FEF7C1FD054623689B687D
:1018D00013F0010F13D0FEF7B9FD431B022BF5D90E
:1018E00023689B6813F0010FF0D0A36A43F0100344
:1018F000A362E36A43F00103E3620120DDE7002015
:10190000DBE7000000287BD070B50446836A002B1B
:101910004DD02046FFF7CAFFA36A13F0100369D128
:10192000002867D1A26A22F4885222F0020242F013
:101930000202A2626268E1690A43217B42EA410233
:10194000A568B5F5807F02D0012D36D01D46267DD5
:10195000012E35D02668716821F4694129437160F0
:101960002568AE68274931401143A960A168B1F5E7
:10197000807F01D0012902D12369013B1B05256825
:10198000E96A21F470010B43EB62236899681E4BEE
:101990000B409A4225D0A36A23F0120343F01003B0
:1019A000A362E36A43F00103E362012027E0C3621C
:1019B00080F82430FFF784FCABE74FF48075C6E76E
:1019C00031B9A169013945EA413141F40065C1E706
:1019D000A16A41F02001A162E16A41F00101E162E6
:1019E000B8E70023E362A36A23F0030343F0010393
:1019F000A36204E0A36A43F01003A362012070BD58
:101A000001207047FDF7E1FFFE0E1FFF7047000049
:101A100000B583B00A4B5A6942F001025A615B6912
:101A200003F001030193019B002205210B20FFF726
:101A3000BDFB0B20FFF7F2FB03B05DF804FB00BF1A
:101A40000010024008B50A480A4B03604FF4E13326
:101A5000436000238360C36003610C2242618361A1
:101A6000C36100F03FF900B908BDFEF797FBFBE743
:101A7000A40000200038014030B587B00023029355
:101A800003930493059302681E4B9A4201D007B05A
:101A900030BD03F558439A6942F480429A619A69CD
:101AA00002F480420092009A9A6942F008029A6118
:101AB0009B6903F008030193019B402302930223D7
:101AC000039303230593104D02A92846FFF7F4F86A
:101AD0008023029300240394049402A92846FFF76C
:101AE000EBF80A4A536843F0E06343F004035360A1
:101AF000224605212520FFF759FB2520FFF78EFB05
:101B0000C5E700BF00380140000C01400000014063
:101B1000026802F10C0353E8003F23F490730C3287
:101B200042E800310029F3D1026802F1140353E8BE
:101B3000003F23F00103143242E800310029F3D1C1
:101B4000036B012B05D0202380F842300023036370
:101B50007047026802F10C0353E8003F23F01003C2
:101B60000C3242E800310029F3D1ECE790F8413023
:101B7000DBB2212B01D0022070478368B3F5805F70
:101B800017D0036A5A1C02621A7803685A60C38C21
:101B90009BB2013B9BB2C3844BB90268D36823F06C
:101BA0008003D3600268D36843F04003D360002011
:101BB00070470369002BE4D1036A1B880268C3F3F2
:101BC00008035360036A02330362E0E710B504467A
:101BD0000268136923F44053C1680B43136183689F
:101BE0000269134342691A430168CB6823F4B05376
:101BF00023F00C031343CB600268536923F4407352
:101C000081690B4353610268134B9A4220D0FEF75F
:101C10003BFF024602EB820202EB820263689B00FA
:101C2000B2FBF3F20D48A0FB02314909642303FB28
:101C300011231B013233A0FB03035B0903F0F00205
:101C400002EB011203F00F03216813448B6010BDF7
:101C5000FEF72AFF0246DDE7003801401F85EB5101
:101C60002DE9F84305460F4616469946DDF82080D3
:101C70002B681C6837EA04040CBF01240024B4421A
:101C80002DD1B8F1FF3FF3D0B8F1000F05D0FEF72A
:101C9000DDFBA0EB09004045EAD92A6802F10C03FC
:101CA00053E8003F23F4D0730C3242E8003100299E
:101CB000F3D12A6802F1140353E8003F23F0010333
:101CC000143242E800310029F3D1202385F8413055
:101CD00085F84230002385F84030032000E00020E2
:101CE000BDE8F88360B310B5044690F8413013B3F3
:101CF000242384F841302268D36823F40053D3604E
:101D00002046FFF763FF2268136923F490431361B1
:101D10002268536923F02A0353612268D36843F48D
:101D20000053D36000206064202384F8413084F89D
:101D30004230606310BD80F84030FFF79DFED7E76A
:101D4000012070472DE9F04182B01E4690F84130E5
:101D5000DBB2202B4BD104460D46904600294AD0D9
:101D60000AB9012044E000234364212380F8413074
:101D7000FEF76CFB0746A4F82480A4F82680A3682D
:101D8000B3F5805F02D04FF000080FE02369FBB18C
:101D90004FF000080AE038F8023B2268C3F308035A
:101DA0005360E28C92B2013A92B2E284E38C9BB22D
:101DB0008BB100963B46002280212046FFF750FF62
:101DC000D8B9002DE7D015F8012B23685A60E8E751
:101DD000A8460025EAE700963B460022402120461F
:101DE000FFF73EFF58B9202384F8413000E002207D
:101DF00002B0BDE8F0810120FAE70320F8E70320F4
:101E0000F6E7704708B50168CA6822F04002CA6068
:101E1000202280F84120FFF7F4FF002008BD704722
:101E2000704708B5406A0023C385C384FFF7F8FFF5
:101E300008BD704790F84230DBB2222B69D183682D
:101E4000B3F5805F4FD0826AB3F5805F04D0002B7A
:101E500056D10369002B53D103685B681370836A02
:101E600001338362C38D9BB2013B9BB2C385002BC0
:101E700051D100B583B00268D36823F02003D3604A
:101E80000268D36823F48073D3600268536923F037
:101E900001035361202380F8423000234363036B26
:101EA000012B33D100230363026802F10C0353E8D2
:101EB000003F23F010030C3242E800310029F3D137
:101EC00003681A6812F0100F06D0002201921A68F7
:101ED00001925B680193019B818DFFF7AAFF0020AF
:101EE00003B05DF804FB0269002AACD1826A036882
:101EF0005B68C3F308031380836A02338362B1E72C
:101F000003685B6803F07F031370A8E7FFF787FFA0
:101F1000E5E70220704700207047000030B583B02D
:101F2000044602681368D068516913F00F0505D1A3
:101F300013F0200F02D010F0200F19D12DB111F0A5
:101F4000010119D110F4907F16D1216B01297DD0A8
:101F500013F0800F03D010F0800F40F0188113F0C1
:101F6000400F03D010F0400F40F0158103B030BD9A
:101F70002046FFF75FFFF9E713F0010F06D010F4DA
:101F8000807F03D0626C42F00102626413F0040FA0
:101F900004D019B1626C42F00202626413F0020FC5
:101FA00004D019B1626C42F00402626413F0080FAD
:101FB00007D010F0200F00D119B1626C42F0080276
:101FC0006264626C002AD1D013F0200F02D010F0AE
:101FD000200F29D123685B6903F04003626C12F083
:101FE000080F00D163B32046FFF792FD23685B69B9
:101FF00013F0400F20D0226802F1140353E8003F91
:1020000023F04003143242E800310029F3D1E36B9E
:1020100073B1634A5A63E06BFEF7C8FF0028A5D08E
:10202000E06B436B9847A1E72046FFF703FFD1E73A
:102030002046FFF7F5FE99E72046FFF7F1FE95E70A
:102040002046FFF7EDFE002363648FE713F0100FC7
:102050003FF47EAF10F0100F3FF47AAF00230193EE
:102060001368019353680193019B536913F0400F68
:1020700051D0E26B13685B689BB2002B3FF476AFE4
:10208000A18D99427FF672AFE3859369202B37D0FB
:10209000226802F10C0353E8003F23F480730C32F2
:1020A00042E800310029F3D1226802F1140353E819
:1020B000003F23F00103143242E800310029F3D13C
:1020C000226802F1140353E8003F23F04003143266
:1020D00042E800310029F3D1202384F84230002364
:1020E0002363226802F10C0353E8003F23F010033E
:1020F0000C3242E800310029F3D1E06BFEF732FFE9
:1021000002236363A18DE38D9BB2C91A89B2204675
:10211000FFF78FFE2AE7A18DE38D9BB2C91A89B222
:10212000E38D9BB2002B3FF421AF00293FF41EAF9B
:10213000226802F10C0353E8003F23F490730C3241
:1021400042E800300028F3D1226802F1140353E87A
:10215000003F23F00103143242E800300028F3D19D
:10216000202384F8423000232363226802F10C0309
:1021700053E8003F23F010030C3242E800300028FF
:10218000F3D1022363632046FFF753FEEEE62046B9
:10219000FFF7ECFCEAE62046FFF734FEE6E600BF78
:1021A000231E000800B583B0074C642301220DF103
:1021B00007012046FFF7C6FD642301220DF1060149
:1021C0002046FFF7BFFDEFE7A400002008B50B4C49
:1021D00000224FF400512046FEF787FE4FF47A703C
:1021E000FEF73AF901224FF400512046FEF77DFE3A
:1021F0004FF47A70FEF730F9E9E700BF00100140B4
:10220000F8B50026374608E09FB901224FF48071E7
:102210001248FEF76AFE01263746104D1021284667
:10222000FEF75CFE044620212846FEF757FE012CEF
:10223000EAD001280ED004B91FB90028EDD1002E34
:10224000EBD000224FF480710448FEF74EFE0026CA
:102250003746E2E7002EEED1D7E700BF000C014081
:1022600010B5054C4FF47A712046FFF77FF82046F1
:10227000FFF73EF9F5E700BF3000002008B50E4A31
:1022800000210E4801F0EAFA0D4B18600D4A0021BA
:102290000D4801F0E3FA0D4B18600D4A00210D487E
:1022A00001F0DCFA0C4B18600C4A00210C4801F0DC
:1022B000D5FA0C4B186008BD24400008A521000881
:1022C000F8000020B83F0008CD210008EC000020F5
:1022D0000040000801220008F4000020DC3F000854
:1022E00061220008F000002000F1080343604FF075
:1022F000FF328260C36003610023036070470023E4
:102300000361704743684B609A688A6051609960C6
:102310000861036801330360704730B40D68B5F19C
:10232000FF3F11D000F108031C465B681A68AA42FF
:10233000FAD963684B6099608C60616008610368DA
:102340000133036030BC70470469F2E703694168F8
:1023500082688A60416851605A68824206D00022D1
:1023600002611A68013A1A601868704782685A60F8
:10237000F5E710B5044601F065FCA26BE36B9A42E9
:1023800004D0002401F080FC204610BD0124F9E7B0
:1023900010B5044601F056FCA36B23B9012401F0EB
:1023A00073FC204610BD0024F9E770B504461546BD
:1023B000866B026C5AB903681BB100200136A66314
:1023C00070BD406800F0A2FF00236360F6E76DB9BE
:1023D000806801F099FD226CA3681344A3606268D1
:1023E000934219D32368A3602846E7E7C06801F049
:1023F0008BFD226C5142E3689B1AE3602268934292
:1024000002D263680B44E360022D01D00020D5E7BF
:1024100026B1013E0020D1E72846CFE70020CDE7D6
:1024200008B50346026C62B10846D9681144D96008
:10243000D3F804C0614501D31968D960D96801F0A7
:1024400063FD08BD38B5054601F0FCFB95F8454035
:1024500064B201E0013C64B2002C0ADD6B6A43B156
:1024600005F1240000F0A8FE0028F3D000F038FFAA
:10247000F0E7FF2385F8453001F006FC01F0E2FBB0
:1024800095F8444064B201E0013C64B2002C0ADDDE
:102490002B6943B105F1100000F08EFE0028F3D047
:1024A00000F01EFFF0E7FF2385F8443001F0ECFB5D
:1024B00038BD38B5E0B10D46044601F0C3FB2368D2
:1024C000E26B216C01FB023060600020A063A3601E
:1024D000013A02FB0133E360FF2384F8443084F8BF
:1024E0004530FDB9236963B901F0CEFB012038BD49
:1024F0004FF0500383F31188BFF36F8FBFF34F8FFB
:10250000FEE704F1100000F057FE0028ECD04FF079
:10251000E0234FF08052C3F8042DBFF34F8FBFF379
:102520006F8FE1E704F11000FFF7DEFE04F12400F5
:10253000FFF7DAFED8E738B51D46049C0B4649B9CB
:102540002460E063236401212046FFF7B2FF84F892
:102550004C5038BD2260F4E740B94FF0500383F38C
:102560001188BFF36F8FBFF34F8FFEE710B584B0B4
:102570001C46844653B192B189B94FF0500383F39E
:102580001188BFF36F8FBFF34F8FFEE74FF05003FB
:1025900083F31188BFF36F8FBFF34F8FFEE76AB1EC
:1025A00050230393039B502B13D04FF0500383F31E
:1025B0001188BFF36F8FBFF34F8FFEE70029EFD075
:1025C0004FF0500383F31188BFF36F8FBFF34F8F2A
:1025D000FEE7012384F8463000949DF818306046E9
:1025E000FFF7A9FF204604B010BDF0B585B00192F9
:1025F00088B10F461D460446B1B1022D20D1E36BD0
:10260000012B1DD04FF0500383F31188BFF36F8F60
:10261000BFF34F8FFEE74FF0500383F31188BFF3F2
:102620006F8FBFF34F8FFEE7036C002BE5D04FF0A9
:10263000500383F31188BFF36F8FBFF34F8FFEE713
:1026400000F054FE064658B9019B002B48D04FF0CD
:10265000500383F31188BFF36F8FBFF34F8FFEE7F3
:1026600000263DE02A4639462046FFF79EFE636A73
:102670007BB948B14FF0E0234FF08052C3F8042DEE
:10268000BFF34F8FBFF36F8F01F0FEFA012005B04B
:10269000F0BD04F1240000F08FFD0028F4D04FF0CD
:1026A000E0234FF08052C3F8042DBFF34F8FBFF3E8
:1026B0006F8FE9E701F0E8FA0020E8E702A800F0F0
:1026C000C1FD012619E0002384F8443021E00023F5
:1026D00084F8453023E02046FFF7B4FE00F072FC9A
:1026E00001F0B0FAA26BE36B9A42BBD3022DB9D0D2
:1026F000019B002BDED0002EE0D001F0C5FA00F0E7
:10270000C7FB01F09FFA94F8442052B2B2F1FF3FA8
:10271000D9D094F8452052B2B2F1FF3FD7D001F0A2
:10272000B3FA01A902A800F099FDD8B92046FFF735
:1027300020FE0028CFD0019904F1100000F008FD20
:102740002046FFF77FFE00F03DFC0028C8D14FF087
:10275000E0234FF08052C3F8042DBFF34F8FBFF337
:102760006F8FBDE72046FFF76DFE00F02BFC0020C9
:102770008DE72DE9F84390B10F4616461C460546F5
:10278000B1B1022C20D1EB6B012B1DD04FF05003C7
:1027900083F31188BFF36F8FBFF34F8FFEE74FF0C6
:1027A000500383F31188BFF36F8FBFF34F8FFEE7A2
:1027B000036C002BE5D04FF0500383F31188BFF377
:1027C0006F8FBFF34F8FFEE701F026FBEFF3118809
:1027D0004FF0500383F31188BFF36F8FBFF34F8F18
:1027E000AA6BEB6B9A4206D3022C04D0002088F32C
:1027F0001188BDE8F88395F845904FFA89F922468B
:1028000039462846FFF7D1FDB9F1FF3F06D009F15F
:1028100001035BB285F845300120E8E76B6A0BB92C
:102820000120E4E705F1240000F0C6FC18B126B150
:1028300001203060DBE70120D9E70120D7E7F0B5C0
:1028400085B0019290B10F460446C1B100F04EFD33
:10285000064600BB019B002B5ED04FF0500383F374
:102860001188BFF36F8FBFF34F8FFEE74FF0500318
:1028700083F31188BFF36F8FBFF34F8FFEE7036CB5
:10288000002BE3D04FF0500383F31188BFF36F8F19
:10289000BFF34F8FFEE700263EE039462046FFF7A4
:1028A000BFFD013DA563236923B901F0EDF90120C6
:1028B00005B0F0BD04F1100000F07EFC0028F4D05B
:1028C0004FF0E0234FF08052C3F8042DBFF34F8F39
:1028D000BFF36F8FE9E701F0D7F90020E8E702A81E
:1028E00000F0B0FC012621E0002384F8443029E008
:1028F000002384F845302BE02046FFF7A3FD00F0CD
:1029000061FB09E02046FFF79DFD00F05BFB2046E0
:10291000FFF73EFD00283FD101F094F9A56B002D93
:10292000BBD1019B002BD6D0002ED8D001F0ACF942
:1029300000F0AEFA01F086F994F844305BB2B3F1DE
:10294000FF3FD1D094F845305BB2B3F1FF3FCFD019
:1029500001F09AF901A902A800F080FC0028D1D169
:102960002046FFF715FD0028C6D0019904F1240088
:1029700000F0EEFB2046FFF765FD00F023FB00288A
:10298000CAD14FF0E0234FF08052C3F8042DBFF3BB
:102990004F8FBFF36F8FBFE7002089E70023072B1E
:1029A0000CD8074A52F833200AB10133F7E7044A3A
:1029B00042F8331002EBC30250607047704700BF0B
:1029C000FC00002070B504460D46164601F03AF9A9
:1029D00094F844305BB2B3F1FF3F0DD094F845302A
:1029E0005BB2B3F1FF3F0BD001F04EF9A36B5BB1CB
:1029F0002046FFF727FD70BD002384F84430EDE743
:102A0000002384F84530EFE73246294604F12400DC
:102A100000F0B6FBECE70000084B1B681B6823B90D
:102A2000074B4FF0FF321A607047044B1B68DB689E
:102A3000DB685A68024B1A60704700BF40010020F3
:102A4000EC0500202DE9F04780460D4617469946D3
:102A5000089EDDF824A00A9C9200A521206B01F0BD
:102A600061FA236B07F18042013A03EB820727F0FA
:102A700007074FF0000CBCF10F0F09D815F80C3008
:102A800004EB0C0282F8343013B10CF1010CF2E7C4
:102A9000002384F84330372E00D93726E662E664F7
:102AA00000252565201DFFF72AFC04F11800FFF71B
:102AB00026FC2461C6F13806A6616462656584F867
:102AC00058504A464146384601F098F82060BAF11D
:102AD000000F01D0CAF80040BDE8F08738B50024E7
:102AE00007E004EB840293000E481844FFF7FCFB58
:102AF0000134372CF5D90C4D2846FFF7F5FB0B4C6C
:102B00002046FFF7F1FB0A48FFF7EEFB0948FFF705
:102B1000EBFB0948FFF7E8FB084B1D60084B1C6006
:102B200038BD00BF48010020C0050020D4050020AA
:102B3000F4050020200600200C06002040010020A3
:102B40004401002010B5044601F07CF8224A1368C5
:102B500001331360214B1B685BB1214B1B686BB9C0
:102B60001E4B1B68DA6AE36A9A4207D81B4B1C604B
:102B700004E01A4B1C601368012B29D0194A136812
:102B8000013313606364E06A174B1B68984201D9F4
:102B9000154B186000EB8000211D144B03EB8000E7
:102BA000FFF7B0FB01F070F80D4B1B687BB10B4BCE
:102BB0001B68DA6AE36A9A4209D24FF0E0234FF0C9
:102BC0008052C3F8042DBFF34F8FBFF36F8F10BD3A
:102BD000FFF784FFD2E700BFA80500203C010020DA
:102BE00008060020B8050020BC0500204801002090
:102BF00010B5044690F8593063B1012B11D0022B67
:102C00000ED04FF0500383F31188BFF36F8FBFF3E3
:102C10004F8FFEE7006B00F089FF204600F086FF33
:102C200010BD00F083FFFBE70F4B1B68D3B110B55D
:102C300001F008F80D4BDB68DC68201DFFF786FB10
:102C40000B4A1368013B1360074A1368013B13608A
:102C500001F01AF82046FFF7CBFF034B1B68002B4F
:102C6000E6D110BD704700BFAC0500202006002053
:102C7000A805002008B5FFF7D7FF074B1B68012BFD
:102C8000F9D94FF0E0234FF08052C3F8042DBFF381
:102C90004F8FBFF36F8FEEE74801002070B50446F9
:102CA0000D46174B1E68174B18680430FFF74EFB94
:102CB000B4F1FF3F0DD03444124B1B685C60A64258
:102CC00010D9114B18680F4B19680431FFF725FB19
:102CD00070BD002DEFD00B4B196804310B48FFF786
:102CE00011FBF5E70A4B1868064B19680431FFF72A
:102CF00014FB084B1B68A342EAD9064B1C60E7E7AC
:102D0000340600203C010020440100200C06002075
:102D100040010020EC05002030B587B00B9C7CB151
:102D20000C9DB5B15C250495049D5C2D1AD04FF027
:102D3000500383F31188BFF36F8FBFF34F8FFEE70C
:102D40004FF0500383F31188BFF36F8FBFF34F8FA2
:102D5000FEE74FF0500383F31188BFF36F8FBFF38B
:102D60004F8FFEE70C9D2C63022485F85940002408
:102D70000394029505AC01940A9C0094FFF762FE4F
:102D80000C98FFF7DFFE059807B030BD2DE9F04342
:102D900085B00746884614461E46900000F04EFE59
:102DA00000B381465C2000F049FE0546B0B1C0F892
:102DB0003090E5B1002385F85930039302950D9BBF
:102DC00001930C9B00933346224641463846FFF759
:102DD00039FE2846FFF7B6FE012005E0484600F020
:102DE000A5FEE6E74FF0FF3005B0BDE8F0834FF0F9
:102DF000FF30F9E710B588B000240594069407AABF
:102E000006A905A800F0A0FD059B0293069B01936F
:102E100000942346079A18491848FFF77DFF184B7E
:102E2000186040B100F026FB012806D0B0F1FF3F4A
:102E300018D008B010BD0020F6E74FF0500383F320
:102E40001188BFF36F8FBFF34F8F0E4B4FF0FF32E0
:102E50001A600D4B01221A600C4B00221A6000F020
:102E60007BFFE6E74FF0500383F31188BFF36F8FCA
:102E7000BFF34F8FFEE700BF48400008752C0008E5
:102E8000E8050020EC05002008060020340600209C
:102E9000024A136801331360704700BFB405002075
:102EA000014B1868704700BF34060020F8B53A4B54
:102EB0001B68002B64D1394B1D6801351D60C5B9F5
:102EC000374B1B681B6843B14FF0500383F31188E5
:102ED000BFF36F8FBFF34F8FFEE7314A1168314B5D
:102EE000186810601960304A136801331360FFF7E7
:102EF00093FD2E4B1B68AB4238D900272C4B1B6827
:102F0000DB6A03EB83039A002A4B9B58012B3CD9C5
:102F100001273AE00127224B1B681B6843B3204B73
:102F20001B68DB68DC6863689D4226D3261D30463B
:102F3000FFF70CFAA36A1BB104F11800FFF706FAB9
:102F4000E36A1D4A1268934201D91B4A136003EBDE
:102F500083039A00314617481044FFF7D3F9E26A19
:102F6000134B1B68DB6A9A42D4D2D4E70027D2E71E
:102F70000E4B4FF0FF321A60C0E70C4A1360BDE7FA
:102F80000E4A13680133136000270D4B1B6803B111
:102F900001273846F8BD00BFB405002034060020E4
:102FA0004001002044010020F0050020EC05002035
:102FB0003C01002048010020BC050020B005002095
:102FC0003806002038B5354B1B6843B94FF0500325
:102FD00083F31188BFF36F8FBFF34F8FFEE700F0CD
:102FE00031FE2E4B1A68013A1A601B68002B4FD134
:102FF0002B4B1B680BB900244BE00024294B1B68AA
:103000001BB3284BDB68DC6804F11800FFF79EF95E
:10301000251D2846FFF79AF9E06A234B1B68984262
:1030200001D9214B186000EB800029461F4B03EBB0
:103030008000FFF767F9E26A1D4B1B68DB6A9A4262
:10304000DCD31C4B01221A60D8E70CB1FFF7E4FC7B
:10305000194B1C6884B9174B1C68D4B14FF0E0239E
:103060004FF08052C3F8042DBFF34F8FBFF36F8F23
:1030700001240EE0013C07D0FFF718FF0028F9D02B
:103080000C4B01221A60F5E70B4B00221A60E2E7B5
:10309000002400F0F9FD204638BD00BFB405002033
:1030A000A8050020F4050020BC05002048010020F0
:1030B0003C01002038060020B00500201F4B1B6893
:1030C0001BB11F4B01221A6070471D4B00221A6072
:1030D0001C4B1B6803EB83018A001B498A585AB9B1
:1030E0000BB1013BF6E74FF0500383F31188BFF3B8
:1030F0006F8FBFF34F8FFEE703EB830082000A441C
:1031000050684068506003EB830C4FEA8C02083231
:10311000114488420BD003EB830291000A4A0A440F
:103120005268D168094A1160064A136070474068C6
:1031300062469100044A0A445060ECE7B40500205E
:1031400038060020BC050020480100203C0100207A
:1031500058B110B50C46094A11681831FFF7DDF86F
:1031600001212046FFF79AFD10BD4FF0500383F375
:103170001188BFF36F8FBFF34F8FFEE73C01002034
:1031800038B570B10D4614460A4A11681831FFF778
:10319000B9F80CB14FF0FF3521462846FFF77EFD08
:1031A00038BD4FF0500383F31188BFF36F8FBFF327
:1031B0004F8FFEE73C01002038B5C368DC6824B3BC
:1031C00004F118052846FFF7C1F8184B1B682BBB04
:1031D000251D2846FFF7BAF8E06A154B1B68984290
:1031E00001D9134B186000EB80002946114B03EB0B
:1031F0008000FFF787F8E26A0F4B1B68DB6A9A4290
:1032000011D901200D4B186038BD4FF0500383F3E6
:103210001188BFF36F8FBFF34F8FFEE72946084831
:10322000FFF770F8E7E70020EEE700BFB4050020E5
:10323000BC050020480100203C0100203806002089
:10324000F4050020034B1B680360034B1B684360BD
:10325000704700BFF005002034060020D8B170B5DB
:103260000C46054601B300F0EDFC1B4B19686B687A
:10327000C81A2268B2F1FF3F27D0184E3668D5F839
:1032800000C0B44501D08B4224D9824215D8002316
:10329000236001241AE04FF0500383F31188BFF339
:1032A0006F8FBFF34F8FFEE74FF0500383F311880A
:1032B000BFF36F8FBFF34F8FFEE75B1A134423609A
:1032C0002846FFF7BFFF002400E0002400F0DCFCEC
:1032D000204670BD0124F9E734060020F0050020E7
:1032E000014B01221A60704738060020054B1B680D
:1032F00033B1054B1B680BB10020704702207047AB
:103300000120704708060020B405002000283BD0AB
:1033100038B504461E4B1B68834208D04FF050035B
:1033200083F31188BFF36F8FBFF34F8FFEE7036DF9
:1033300043B94FF0500383F31188BFF36F8FBFF38E
:103340004F8FFEE7013B0365C16AC26C91421DD0FD
:103350000BB1002038BD051D2846FEF7F7FFE06CD5
:10336000E062C0F13803A3610A4B1B68984201D99F
:10337000084B186000EB80002946074B03EB8000E8
:10338000FEF7C0FF0120E5E7002070470020E1E7DD
:103390003C010020BC05002048010020064B1A68B3
:1033A0001368B3FA83F35B09036013B9D368186831
:1033B00070470020704700BF3C06002008B5416000
:1033C000006191420CD8D21A83699A4201D301203C
:1033D00008BD011D094B1868FEF79FFF0020F7E7A5
:1033E0009A4201D2994206D2011D054B1868FEF798
:1033F00094FF0020ECE70120EAE700BF4006002030
:103400003C06002030B583B000F01CFC114B1B685B
:103410001BB100F039FC03B030BD0F4D2846FEF75C
:1034200063FF0E4C2046FEF75FFF0D4B1D600D4BFA
:103430001C60002300930C4B0C4A10210A20FFF75C
:103440008BF8044B18600028E3D00949FFF7A6FA6F
:10345000DFE700BF60070020E4060020F806002038
:103460003C060020400600201007002044060020F3
:103470005040000810B588B0FFF7C4FF124B1B681E
:10348000CBB100240594069407AA06A905A800F06C
:1034900067FA059B0293069B019302230093234640
:1034A000079A0A490A48FFF737FC0A4B186010B11F
:1034B000012008B010BD4FF0500383F31188BFF313
:1034C0006F8FBFF34F8FFEE7600700205840000862
:1034D000B537000864070020B8B19C460346184879
:1034E000006858B300B585B0009101920293052998
:1034F0001CDCFFF7FBFE022810D000231A466946A9
:103500000F480068FFF771F815E04FF0500383F3A0
:103510001188BFF36F8FBFF34F8FFEE70023069A2A
:10352000694607480068FFF760F804E00023624638
:103530006946FFF71EF905B05DF804FB00207047EF
:103540006007002070B582B01A4B1B681A6852B32E
:10355000DB681E68DC68251D2846FEF7F7FE636AF7
:1035600020469847E369012BEED1A36933449E427C
:1035700007D26360246129460E4B1868FEF7CDFE22
:10358000E2E7002100910B4632462046FFF7A4FFF8
:103590000028D9D14FF0500383F31188BFF36F8F08
:1035A000BFF34F8FFEE7044A1068024908601360BA
:1035B00002B070BD3C0600204006002038B505462C
:1035C000FFF76EFC0446074B1B68834205D80023B7
:1035D0002B60044B1C60204638BDFFF7B3FF01236E
:1035E0002B60F6E70C07002070B582B006460D464A
:1035F00014490968C968CC68201DFEF7A7FEE16977
:10360000012904D0636A2046984702B070BDA169C1
:1036100033462A4631442046FFF7D0FE0028F1D039
:10362000002100910B4632462046FFF755FF002847
:10363000E8D14FF0500383F31188BFF36F8FBFF3CE
:103640004F8FFEE73C06002070B582B006460C4660
:10365000FFF71EFC01A8FFF7B1FF019B2BBB05463E
:103660000CB9B0421AD22CB1124B1B681C68B4FAC8
:1036700084F464092246711B0F4B1868FFF7A2F906
:10368000FFF7A0FC98B94FF0E0234FF08052C3F849
:10369000042DBFF34F8FBFF36F8F08E0FFF792FC4D
:1036A00029463046FFF7A0FF01E0FFF78BFC02B090
:1036B00070BD00BF400600206007002010B588B034
:1036C00002E0049B002B0FDA002204A9384B186893
:1036D000FFF7B5F8002869D0049B002BF1DA0799B1
:1036E0000698059B9847ECE7069C636913B1201D7B
:1036F000FEF72CFE03A8FFF761FF049B092BE3D81C
:1037000001A252F823F000BF31370008313700081A
:1037100031370008C9360008773700089D370008A0
:103720003137000831370008C936000877370008FC
:10373000059BA169024619442046FFF73FFE002879
:10374000C2D0636A20469847E369012BBCD1A269C5
:10375000002100910B46059802442046FFF7BCFE6D
:103760000028B1D14FF0500383F31188BFF36F8F5E
:10377000BFF34F8FFEE70599A16131B103460246C1
:1037800001442046FFF71AFE9EE74FF0500383F3F3
:103790001188BFF36F8FBFF34F8FFEE794F82C3083
:1037A000002B91D1204600F0C1F98DE708B010BD83
:1037B0006007002000B583B001A8FFF7EFFD019975
:1037C000FFF742FFFFF77AFFF6E70000EFF305830C
:1037D00093B9EFF3108393B90C4B1868022804D007
:1037E00080B90A4B01221A607047EFF31183002B56
:1037F000F6D06FF0050070476FF0050070476FF06E
:10380000050070474FF0FF30704700BFC40900202B
:1038100008B5EFF30583B3B9EFF31083B3B90E4BDB
:103820001B68022B08D0012B13D10B4B02221A600C
:10383000FFF7E0FA002008BDEFF31182002AF2D072
:103840006FF00500F7E76FF00500F4E76FF0050093
:10385000F1E74FF0FF30EEE7C4090020F0B587B084
:1038600000240494EFF30584002C43D1EFF310837C
:10387000002B3FD1334B1B68022B16D0002839D0C8
:1038800000238DF8173062B3156895B1936903B9B9
:1038900018235C1E372C51D8546814F0010F4FD1F7
:1038A00056694EB14FEA960C08E0EFF311830BBB5B
:1038B000E4E70DF11705E9E74FF0800C94682CB1AF
:1038C000D7685B2F02D9176907B1B6B914B14FF0A9
:1038D000FF340CE0D46894B914699CB14FF0FF3404
:1038E00005E0002418234FF0800C0DF11705012C82
:1038F0000AD0ACB1049807B0F0BD0124F7E74FF04F
:10390000FF34F4E70024F2E714699268029201940C
:1039100000930B4662462946FFF7FEF90490E9E75B
:1039200004AA019200930B461FFA8CF22946FFF776
:103930002DFA0128DED000230493DBE70020DAE72C
:103940000020D8E7C4090020034B0360034B0B6041
:1039500080231360704700BF6809002068070020BB
:10396000034B0360034B0B604FF48073136070478D
:10397000C80D0020C8090020124A12F0070F1ED0FF
:10398000D11D21F00701C1F5406313440A460E48DA
:103990000260002141601344083B23F007030B48F9
:1039A000036059601960991A51601360084B1960DF
:1039B000084B1960084B4FF000421A6070474FF4F3
:1039C0004063E4E7280E0020341A0020240E002073
:1039D000301A00202C1A0020281A0020154B1A46F5
:1039E0001B688342FBD3516802EB010C844509D06C
:1039F000416800EB010C634509D00360904218D088
:103A0000106070474068014451601046F0E710B400
:103A1000094C2468A3420AD05B68194441601368CA
:103A20001B680360904200D0106010BC70470460B7
:103A3000F8E77047341A0020240E002070B50546C0
:103A4000FFF726FA344B1B68A3B1344B1B681D42A9
:103A50004AD135B1083515F0070F02D025F007051A
:103A60000835002D42D02E4B1B68AB424DD32D4A5A
:103A7000146804E0FFF780FFE7E722461C4663680E
:103A8000AB4202D22368002BF7D1234B1B68A34221
:103A90003DD0166808362368136063685B1B102BE3
:103AA00010D9601910F0070F08D04FF0500383F3BE
:103AB0001188BFF36F8FBFF34F8FFEE743606560E0
:103AC000FFF78CFF626816490B689B1A0B6016495A
:103AD00009688B4201D214490B60104B1B681343D9
:103AE00063600023236002E0002600E00026FFF769
:103AF00069FA16F0070F0CD04FF0500383F31188CA
:103B0000BFF36F8FBFF34F8FFEE70026EFE700266E
:103B1000EDE7304670BD00BF240E0020281A0020BB
:103B20002C1A0020341A0020301A002080B338B537
:103B30000446A0F1080550F8043C164A12681342E6
:103B400008D14FF0500383F31188BFF36F8FBFF399
:103B50004F8FFEE750F8081C41B14FF0500383F33C
:103B60001188BFF36F8FBFF34F8FFEE723EA020385
:103B700040F8043CFFF78CF954F8041C064A13681B
:103B80000B4413602846FFF729FFFFF71BFA38BDE7
:103B9000704700BF281A00202C1A002082B0002392
:103BA00001930D4B1B68B3F1FF3F08D04FF050035A
:103BB00083F31188BFF36F8FBFF34F8FFEE74FF092
:103BC000500383F31188BFF36F8FBFF34F8F019BB7
:103BD000002BFCD002B070470C00002006480068A3
:103BE000006880F3088862B661B6BFF34F8FBFF3F9
:103BF0006F8F00DF00BF000008ED00E04FF0807322
:103C000040F8043C21F0010140F8081C034B40F847
:103C10000C3C40F8202C4038704700BF9D3B00080A
:103C2000074B19680868B0E8F00F80F30988BFF304
:103C30006F8F4FF0000080F311884EF00D0E70472B
:103C40003C0100204FF0500383F31188BFF36F8FC6
:103C5000BFF34F8F0B4A136801331360012B00D061
:103C600070474FF0E023D3F8043D13F0FF0FF7D077
:103C70004FF0500383F31188BFF36F8FBFF34F8F63
:103C8000FEE700BF0C000020094B1B6843B94FF052
:103C9000500383F31188BFF36F8FBFF34F8FFEE79D
:103CA000013B034A13600BB983F31188704700BFCF
:103CB0000C000020000000000000000000000000D8
:103CC000EFF30980BFF36F8F0D4B1A6820E9F00FF7
:103CD00010602DE908404FF0500080F31188FFF785
:103CE000EDF94FF0000080F31188BDE80840196835
:103CF0000868B0E8F00F80F30988BFF36F8F704752
:103D00003C01002008B54FF0500383F31188BFF346
:103D10006F8FBFF34F8FFFF7C9F828B14FF0E02343
:103D20004FF08052C3F8042D002383F3118808BD9F
:103D30004FF0E022002313619361054B1B68054996
:103D4000A1FB03139B09013B5361072313617047D8
:103D500008000020D34D621010B582B02A4B1A78AB
:103D6000D2B20192FF221A701B78DBB28DF80330B9
:103D70009DF8033003F05003244A1370244B0722AC
:103D80001A6009E0224A1368013B13609DF8033072
:103D90005B00DBB28DF803309DF8033013F0800F29
:103DA000F0D11B4B1B68032B08D04FF0500383F35B
:103DB0001188BFF36F8FBFF34F8FFEE71B02144ACA
:103DC000136003F4E0631360019BDBB20E4A1370CF
:103DD0004FF0E023D3F8202D42F47002C3F8202DD9
:103DE000D3F8202D42F07042C3F8202DFFF7A0FF3A
:103DF0000024084B1C60FFF7F1FEFFF75FF9FFF7A7
:103E0000CDFE204602B010BD00E400E03C1A0020C8
:103E1000401A00200C000020EFF305830F2B0FD970
:103E2000114A9B5CDBB2114A12789A4208D94FF0D2
:103E3000500383F31188BFF36F8FBFF34F8FFEE7FB
:103E40004FF0E023D3F80C3D03F4E063084A126816
:103E5000934208D94FF0500383F31188BFF36F8F5B
:103E6000BFF34F8FFEE77047F0E300E03C1A0020FD
:103E7000401A0020FDF7F4F90B480C490C4A0023C6
:103E800002E0D458C4500433C4188C42F9D3094A10
:103E9000094C002301E013600432A242FBD300F07E
:103EA0000FF8FCF7BFF97047000000201000002059
:103EB0006840000810000020441A0020FEE70000BF
:103EC00070B500260C4D0D4C641BA410A64209D100
:103ED00000F030F800260A4D0A4C641BA410A642DC
:103EE00005D170BD55F8043B98470136EEE755F80B
:103EF000043B98470136F2E7604000086040000844
:103F000060400008644000080A44914200F1FF3319
:103F100000D1704710B511F8014B914203F8014FE1
:103F2000F9D110BD03460244934200D1704703F813
:103F3000011BF9E7F8B500BFF8BC08BC9E46704706
:0C3F4000F8B500BFF8BC08BC9E467047F6
:103F4C0002030405060708090A0B0C0D0E0F1010CE
:103F5C000102000002030405060708090A0B0C0DF8
:103F6C000E0F101001020000000000000000000005
:103F7C000102030406070809000000000102030403
:103F8C00506F74656E63696F6D65746572000000C7
:103F9C00627574746F6E0000426C696E6B00000089
:103FAC0064656661756C745461736B00A43F0008A2
:103FBC0000000000000000000000000000000000F5
:103FCC0000020000080000000000000000000000DB
:103FDC008C3F000800000000000000000000000002
:103FEC0000000000000200000900000000000000BA
:103FFC00000000009C3F00080000000000000000D2
:10400C000000000000000000000200000900000099
:10401C000000000000000000AC3F000800000000A1
:10402C000000000000000000000000000002000082
:10403C0008000000000000000000000049444C454E
:10404C0000000000546D725100000000546D72208D
:04405C005376630034
:0440600079010008DA
:0440640051010008FE
:1040680001000000100000000024F400AAAAAAAA77
:0400000508003E753C
:00000001FF
