:020000040800F2
:1000000000500020FD210008B9030008BB030008D0
:10001000BD030008BF030008C10300080000000082
:10002000000000000000000000000000C303000802
:10003000C503000800000000C7030008C90300084A
:1000400045220008452200084522000845220008F4
:1000500045220008452200084522000845220008E4
:10006000452200084522000845220008D103000867
:1000700045220008452200084522000845220008C4
:100080004522000845220008E10300084522000837
:1000900045220008452200084522000845220008A4
:1000A0004522000845220008452200084522000894
:1000B0004522000845220008452200084522000884
:1000C0004522000845220008452200084522000874
:1000D00045220008F10300084522000845220008D7
:1000E00045220008452200084522000800000000C3
:1000F0000000000000000000000000000000000000
:0C01000000000000000000005FF808F1A3
:10010C000348044B834202D0034B03B1184770479A
:10011C000C0000200C000020000000000548064BDD
:10012C001B1AD90F01EBA301491002D0034B03B1E9
:10013C00184770470C0000200C0000200000000045
:10014C0010B5064C237843B9FFF7DAFF044B13B113
:10015C000448AFF300800123237010BD0C00002075
:10016C0000000000A022000808B5054B1BB1054992
:10017C000548AFF30080BDE80840FFF7CFBF00BFD4
:10018C000000000010000020A022000872B6FEE75C
:10019C0000B595B0282200210DEB020002F072F898
:1001AC0000230593069307930893099301930293F5
:1001BC000393049301220A924FF480330B930E9213
:1001CC000222119212934FF4E01313930AA800F039
:1001DC0093F9C8B90F2305930221069100230793C5
:1001EC004FF480620892099305A800F0B7FB68B938
:1001FC00022301934FF40043039301A800F08AFCFF
:10020C0030B915B05DF804FBFFF7C0FFFFF7BEFF78
:10021C00FFF7BCFF30B583B000F034F9FFF7B8FF3F
:10022C0000F074F801F01AFC01F042F82F4801F0CC
:10023C00EFFA01F02DFC09E001222D4B1A602D4B39
:10024C001A604FF400512C4800F075FE2B4A1368CD
:10025C0001331360254C4FF47A71204601F0ACF851
:10026C00204601F06BF9264B1860C0F303238DF880
:10027C0006308DF80700234C642301220DF1060192
:10028C00204601F085FD642301220DF10701204673
:10029C0001F07EFD1C4D1021284600F045FE044661
:1002AC002021284600F040FE1CB9114B1B68002B86
:1002BC00C2D018B90F4B1B68002BBDD0012C06D037
:1002CC000128C3D10B4B1B68012BBFD103E0084B9A
:1002DC001B68012BF4D10022054B1A60054B1A60E8
:1002EC004FF40051044800F026FEAFE73C0000201C
:1002FC00280000202C0000200010014034000020B9
:10030C0030000020B0000020000C014030B589B056
:10031C0000240494059406940794214B9A6942F0A6
:10032C0010029A619A6902F010020092009A9A697E
:10033C0042F020029A619A6902F020020192019A1D
:10034C009A6942F008029A619A6902F008020292D4
:10035C00029A9A6942F004029A619B6903F00403C1
:10036C000393039B0F4D22464FF40051284600F097
:10037C00E2FD4FF4005304930123059306940323E9
:10038C00079304A9284600F0BDFC30230493059480
:10039C00069404A9044800F0B5FC09B030BD00BFB8
:1003AC000010024000100140000C0140FEE7FEE787
:1003BC00FEE7FEE7FEE770477047704708B500F0B0
:1003CC0073F808BD08B5024800F062FE08BD00BF16
:1003DC006C00002008B5024801F0B5F808BD00BF5C
:1003EC003C00002008B5024801F0BEFD08BD00BF6E
:1003FC00B000002082B00E4B9A6942F001029A6163
:10040C009A6902F001020092009ADA6942F0805275
:10041C00DA61DB6903F080530193019B054A536851
:10042C0023F0E06343F00073536002B0704700BFE9
:10043C00001002400000014010B504460E4B1A7823
:10044C004FF47A73B3FBF2F30C4A1068B0FBF3F081
:10045C0000F018FF68B90F2C01D901200AE0002226
:10046C0021464FF0FF3000F0C7FE054B1C6000200A
:10047C0000E0012010BD00BF00000020080000209B
:10048C000400002008B5074A136843F010031360FA
:10049C00032000F09FFE0F20FFF7CEFFFFF7AAFF0F
:1004AC00002008BD00200240034A1168034B1B7852
:1004BC000B441360704700BF380000200000002080
:1004CC00014B1868704700BF3800002082B0084B01
:1004DC001B68084AA2FB03235B0A00FB03F301938E
:1004EC0000BF019B5A1E0192002BF9D102B070473C
:1004FC0008000020D34D6210002800F0F18170B587
:10050C0082B00446036813F0010F2CD0994B5B6842
:10051C0003F00C03042B1DD0964B5B6803F00C030B
:10052C00082B12D06368B3F5803F41D0002B55D116
:10053C0003F1804303F504331A6822F480321A6005
:10054C001A6822F480221A6037E08A4B5B6813F435
:10055C00803FE7D0874B1B6813F4003F03D06368E0
:10056C00002B00F0BF81236813F0020F75D0814B74
:10057C005B6813F00C0F5FD07E4B5B6803F00C03D1
:10058C00082B54D02369002B00F08A807A4B01226F
:10059C001A60FFF795FF0546764B1B6813F0020FA8
:1005AC0075D1FFF78DFF401B0228F5D903209EE182
:1005BC00704A136843F480331360636843B3FFF7E6
:1005CC007FFF05466B4B1B6813F4003FCBD1FFF745
:1005DC0077FF401B6428F5D9032088E1B3F5A02FE1
:1005EC0009D0644B1A6822F480321A601A6822F41B
:1005FC0080221A60E1E703F18043A3F53C331A68CB
:10060C0042F480221A601A6842F480321A60D4E7ED
:10061C00FFF756FF0546574B1B6813F4003FA2D05B
:10062C00FFF74EFF401B6428F5D903205FE1514BC7
:10063C005B6813F4803FA5D14E4B1B6813F0020F7F
:10064C0003D02369012B40F04F814A4A136823F0F1
:10065C00F803616943EAC1031360236813F0080FC0
:10066C0033D0A369002B5CD0434B0122C3F8802408
:10067C00FFF726FF05463F4B5B6A13F0020F21D1B3
:10068C00FFF71EFF401B0228F5D903202FE1394A42
:10069C00136823F0F803616943EAC1031360DCE7D4
:1006AC00354B00221A60FFF70BFF0546314B1B68D8
:1006BC0013F0020FD1D0FFF703FF401B0228F5D92E
:1006CC00032014E10120FFF701FF236813F0040F4E
:1006DC0000F09680274BDB6913F0805F34D1254BFB
:1006EC00DA6942F08052DA61DB6903F080530193DE
:1006FC00019B0125214B1B6813F4807F26D0E368F6
:10070C00012B3DD0002B53D103F1804303F504336F
:10071C001A6A22F001021A621A6A22F004021A62A0
:10072C0033E0154B0022C3F88024FFF7C9FE0546C1
:10073C00104B5B6A13F0020FC7D0FFF7C1FE401BD2
:10074C000228F5D90320D2E00025D3E70B4A136821
:10075C0043F480731360FFF7B3FE0646074B1B6828
:10076C0013F4807FCBD1FFF7ABFE801B6428F5D947
:10077C000320BCE000100240000042420070004028
:10078C005F4A136A43F001031362E36833B3FFF764
:10079C0097FE06465A4B1B6A13F0020F2FD1FFF738
:1007AC008FFE801B41F288339842F3D903209EE0E0
:1007BC00052B09D0524B1A6A22F001021A621A6AEE
:1007CC0022F004021A62E0E74D4B1A6A42F004026E
:1007DC001A621A6A42F001021A62D6E7FFF770FE3B
:1007EC000646474B1B6A13F0020F08D0FFF768FE52
:1007FC00801B41F288339842F3D9032077E0E5B9A6
:10080C00E369002B72D03E4A526802F00C02082AAF
:10081C0056D0022B17D03B4B00221A66FFF750FE26
:10082C000446374B1B6813F0007F47D0FFF748FE98
:10083C00001B0228F5D9032059E0314AD36923F073
:10084C008053D361DCE72F4B00221A66FFF738FE8A
:10085C0005462B4B1B6813F0007F06D0FFF730FECC
:10086C00401B0228F5D9032041E0236AB3F5803FF1
:10087C001AD023494B6823F47413226A606A02432A
:10088C0013434B601F4B01221A66FFF719FE0446F7
:10089C001B4B1B6813F0007F0ED1FFF711FE001BE2
:1008AC000228F5D9032022E0154A536823F40033BB
:1008BC00A1680B435360DCE7002018E0002016E031
:1008CC00012B16D00E4B5B6803F48031226A9142E7
:1008DC0011D103F47013626A93420ED1002006E02A
:1008EC0001207047012002E0012000E0002002B04E
:1008FC0070BD0120FBE70120F9E70120F7E700BFFD
:10090C0000100240000042420F4B5B6803F00C02E7
:10091C00082A01D00D487047C3F383420C49885C08
:10092C0013F4803F0BD0084B5B68C3F34043094A78
:10093C00D35C064A02FB00F0B0FBF3F07047064BA9
:10094C0003FB00F0704700BF0010024000127A0059
:10095C00B8220008C822000800093D00002800F059
:10096C00A08070B50D460446524B1B6803F007037C
:10097C008B420BD24F4A136823F007030B431360CF
:10098C00136803F007038B4240F08D80236813F04B
:10099C00020F17D013F0040F04D0474A536843F4E6
:1009AC00E0635360236813F0080F04D0424A536885
:1009BC0043F460535360404A536823F0F003A1683A
:1009CC000B435360236813F0010F31D06368012B84
:1009DC0020D0022B25D0384A126812F0020F64D0B6
:1009EC0035494A6822F0030213434B60FFF768FD58
:1009FC000646314B5B6803F00C036268B3EB820F65
:100A0C0016D0FFF75DFD801B41F288339842F0D978
:100A1C00032045E0284A126812F4003FE0D101207F
:100A2C003EE0254A126812F0007FD9D1012037E050
:100A3C00204B1B6803F00703AB420AD91D4A13680D
:100A4C0023F007032B431360136803F00703AB4237
:100A5C002DD1236813F0040F06D0174A536823F4E2
:100A6C00E063E1680B435360236813F0080F07D071
:100A7C00114A536823F46053216943EAC10353605C
:100A8C00FFF742FF0C4B5B68C3F303130B4AD35CB9
:100A9C00D8400B4B18600B4B1868FFF7CDFC0020AF
:100AAC0070BD012070470120FAE70120F8E7012012
:100ABC00F6E700BF0020024000100240E0220008D0
:100ACC000800002004000020014B1868704700BF8C
:100ADC000800002008B5FFF7F7FF044B5B68C3F371
:100AEC000223034AD35CD84008BD00BF001002406B
:100AFC00F022000808B5FFF7E7FF044B5B68C3F36F
:100B0C00C223034AD35CD84008BD00BF001002408A
:100B1C00F022000870B582B00446036813F0010F90
:100B2C0036D03F4BDB6913F0805F49D13C4BDA691F
:100B3C0042F08052DA61DB6903F080530193019B30
:100B4C000125384B1B6813F4807F3BD0344B1B6A58
:100B5C0013F4407313D0626802F440729A420ED0C0
:100B6C002F4A136A23F440702F490126C1F84064C0
:100B7C000026C1F84064106213F0010F36D1284AE8
:100B8C00136A23F4407361680B431362002D3ED14A
:100B9C00236813F0020F06D0214A536823F4404314
:100BAC00A1680B435360236813F0100F34D01C4A18
:100BBC00536823F48003E1680B43536000202CE05E
:100BCC000025BEE7174A136843F480731360FFF7E0
:100BDC0077FC0646134B1B6813F4807FB6D1FFF7E6
:100BEC006FFC801B6428F5D9032016E0FFF768FC26
:100BFC0006460B4B1B6A13F0020FC0D1FFF760FCCB
:100C0C00801B41F288339842F3D9032005E0D36965
:100C1C0023F08053D361BBE7002002B070BD00BF4E
:100C2C0000100240007000400000424208B502284B
:100C3C004ED0102803D0012828D0002008BD2B4B03
:100C4C005A68186810F08070F8D0C2F383432849B2
:100C5C00C85C12F4803F15D0244B5B68C3F340434F
:100C6C00244AD25C244BB3FBF2F303FB00F01F4B82
:100C7C005B6813F4800FE1D14000204BA3FB0030E4
:100C8C004008DBE71E4B03FB00F0F0E7174B1B6A39
:100C9C0040F202321A40B2F5817F24D003F4407343
:100CAC00B3F5007F04D0B3F5407F09D00020C5E731
:100CBC000E4A526A12F0020FF5D049F64040BDE7D9
:100CCC000A4B186810F40030B8D04FF22440B5E746
:100CDC00FFF710FF054B5B68C3F3813301335B00F7
:100CEC00B0FBF3F0AAE74FF40040A7E70010024076
:100CFC00CC220008DC22000800127A00ABAAAAAAB7
:100D0C0000093D0070B582B00024A446A6E0804DD9
:100D1C00AB4210D007D97F4DAB420CD005F58035D6
:100D2C00AB4208D013E0A5F58015AB4203D005F516
:100D3C007025AB4207D18B68002B58D0012B51D0BA
:100D4C004261082403E0A5F58015AB42F3D0BEF157
:100D5C00FF0F4ED80646BEF1FF0F4CD84FEA8C025F
:100D6C0033680F25954023EA050304FA02F2134376
:100D7C0033604B6813F0805F6ED0674B9A6942F01A
:100D8C0001029A619B6903F001030193019B4FEAF5
:100D9C009C02951C614B53F825600CF00305AD00CB
:100DAC000F23AB4026EA03065D4B984229D003F58E
:100DBC008063984200F08E8003F58063984200F0C7
:100DCC008B8003F58063984219D004231AE0CC6819
:100DDC00BDE7CC680434BAE7CC680834B7E7CC6814
:100DEC000C34B4E702610824B1E70024AFE7042413
:100DFC00ADE7061DAFE7ACF108029200B0E70323A4
:100E0C0000E00023AB4033430232444D45F822301E
:100E1C004B6813F4801F61D0424A936843EA0E0377
:100E2C0093604B6813F4001F5ED03E4AD36843EACC
:100E3C000E03D3604B6813F4003F5BD0394A536800
:100E4C0043EA0E0353604B6813F4803F58D0354A85
:100E5C00136843EA0E0313600CF1010C0B6833FAB0
:100E6C000CF253D0012202FA0CF203EA020E32EA1F
:100E7C000303F1D14B68122B3FF649AF122B3FF60F
:100E8C0066AF01A555F823F0430D0008DB0D0008F3
:100E9C00E50D0008F70D00085B0D00085B0D000860
:100EAC005B0D00085B0D00085B0D00085B0D000876
:100EBC005B0D00085B0D00085B0D00085B0D000866
:100ECC005B0D00085B0D00085B0D0008DF0D0008D2
:100EDC00EB0D0008012395E7022393E7114A936871
:100EEC0023EA0E0393609CE70E4AD36823EA0E03B1
:100EFC00D3609FE70B4A536823EA0E035360A2E7C3
:100F0C00084A136823EA0E031360A5E702B070BD0C
:100F1C0000002210000031100010024000000140BF
:100F2C0000080140000401408368194201D00120EF
:100F3C007047002070470AB10161704709040161D4
:100F4C007047000060B310B402460168154B0B44A7
:100F5C001548A0FB03031B099B001364134BD363BD
:100F6C00022382F82130086820F47F5020F03000F2
:100F7C00536894682343D468234314692343546906
:100F8C00234394692343D469234303430B60002018
:100F9C009063012382F8213082F8200010BC704746
:100FAC0001207047F8FFFDBFCDCCCCCC0000024037
:100FBC00034690F82120D2B2022A06D00422826382
:100FCC00002280F820200120704701680A6822F076
:100FDC000E020A6001680A6822F001020A60026CC3
:100FEC00C06B012101FA02F2426083F8211000204B
:100FFC0083F820007047000008B590F82130DBB270
:10100C00022B03D004238363012008BD02681368FC
:10101C0023F00E0313600268136823F001031360BE
:10102C000368194A934214D0143293421FD01432DD
:10103C0093421ED0143293421ED0143293421ED0CF
:10104C001432934202D04FF0807203E04FF48012BE
:10105C0000E001220D4B5A60012380F8213000235F
:10106C0080F82030436B6BB198470020CDE71022FD
:10107C00F0E74FF48072EDE74FF48052EAE74FF45B
:10108C008032E7E70020C0E7080002400000024081
:10109C0038B5C36B1A6804682568016C04238B404F
:1010AC00134235D015F0040F32D0236813F0200F03
:1010BC0003D1236823F0040323600368434A93425B
:1010CC0014D01432934218D01432934217D01432E5
:1010DC00934217D01432934217D01432934202D059
:1010EC004FF0806203E04FF4800200E00422384BA2
:1010FC005A60C36A03B1984738BD4022F7E74FF4F2
:10110C008062F4E74FF48042F1E74FF48022EEE77F
:10111C0002238B4013423CD015F0020F39D02368C8
:10112C0013F0200F06D1236823F00A032360012358
:10113C0080F821300368254A934214D0143293422C
:10114C001CD0143293421BD0143293421BD0143255
:10115C0093421BD01432934202D04FF0007203E042
:10116C004FF4001200E00222194B5A60002380F861
:10117C002030836A002BBFD09847BDE72022F3E7CD
:10118C004FF40072F0E74FF40052EDE74FF40032E9
:10119C00EAE708238B401342AED015F0080FABD012
:1011AC00236823F00E032360026CC16B012303FA46
:1011BC0002F24A60836380F82130002380F82030EB
:1011CC00036B002B98D0984796E700BF08000240AD
:1011DC0000000240074AD36823F4E0631B041B0C95
:1011EC00000200F4E060034343F0BF6343F40033B8
:1011FC00D360704700ED00E000B5194BDB68C3F31A
:10120C000223C3F1070CBCF1040F28BF4FF0040CF0
:10121C0003F1040EBEF1060F18D9033B4FF0FF3E4D
:10122C000EFA0CFC21EA0C0199400EFA03FE22EA9C
:10123C000E020A4300280BDB1201D2B200F160400F
:10124C0000F5614080F800235DF804FB0023E5E71E
:10125C0000F00F001201D2B2024B1A54F4E700BF97
:10126C0000ED00E014ED00E0002807DB00F01F02A9
:10127C00400901239340024A42F82030704700BFD6
:10128C0000E100E00138B0F1807F0BD24FF0E02399
:10129C005861054AF02182F823100020986107223A
:1012AC001A6170470120704700ED00E070470000A4
:1012BC0000B585B000230193029303931148124AA1
:1012CC00026083600122027303754FF46021C161D7
:1012DC004360026100F03CFB68B9092301930123D0
:1012EC0002930023039301A9064800F0ADF928B935
:1012FC0005B05DF804FBFEF749FFEEE7FEF746FF8D
:10130C00F6E700BF3C0000200024014010B586B079
:10131C00002302930393049305930268224B9A4291
:10132C0001D006B010BD044603F56C439A6942F433
:10133C0000729A619A6902F400720092009A9A699A
:10134C0042F008029A619B6903F008030193019B28
:10135C00022302930323039302A91448FFF7D2FC40
:10136C001348144B03600023436083608022C260E7
:10137C004FF4007202614FF40062426120228261DC
:10138C00C361FFF7DFFD58B9094B23625C62002291
:10139C0011461220FFF730FF1220FFF765FFC0E760
:1013AC00FEF7F4FEF0E700BF00240140000C014002
:1013BC006C00002008000240F0B583B005460C46D6
:1013CC0000230193FFF77CF82B689A6812F4807F56
:1013DC0023D107465A6812F4807F03D1DB6A13F4D9
:1013EC00700F29D0504B1E680220FFF71FFCB6FB74
:1013FC00F0F62B6819694D4A114236D1D96802F1C1
:10140C005C42114231D11969494A114240D1DA6822
:10141C00484B1A423ED0292341E0AB6A43F02003EB
:10142C00AB62002385F82430012003B0F0BD2B689B
:10143C001B6813F0020F0FD02B681B6813F0020F00
:10144C004FD1B4F1FF3FF7D0002CF0D0FFF738F8B4
:10145C00C31BA342F0D9EAE7AB6A43F00403AB62C7
:10146C00002385F824300320DFE71969304A114244
:10147C0004D1D96802F16E4211420DD019692E4A7D
:10148C000A405AB9DA682C4B13405BB1FC2306E0D6
:10149C00292304E0142302E0542300E0FC2303FB83
:1014AC0006F607E05423FAE7019BB34210D3019BE5
:1014BC0001330193019BB34213D2B4F1FF3FF6D039
:1014CC00002CF1D0FEF7FCFFC01BA042EFD9EBE7DC
:1014DC00AB6A43F00403AB62002385F8243003208D
:1014EC00A3E72B686FF012021A60AB6A43F4007327
:1014FC00AB622B689B6803F46023B3F5602F01D0BB
:10150C00002092E7287B60B9AB6A23F48073AB624E
:10151C00AB6A13F4805F88D1AB6A43F00103AB6212
:10152C0083E7002081E700BF0800002024499224B3
:10153C009224491292244900499224000368D86CE1
:10154C0070477047704770B5044603681E685D6845
:10155C0015F0200F17D016F0020F14D0826A12F07B
:10156C00100F03D1826A42F4007282629A6802F40C
:10157C006022B2F5602F33D02046FFF7E2FF2368DC
:10158C006FF012021A6015F0800F22D016F0040FC3
:10159C001FD0A36A13F0100F03D1A36A43F40053B6
:1015AC00A3622268936803F4E043B3F5E04F2ED0B6
:1015BC00536813F4806F05D1936803F46023B3F57B
:1015CC00602F21D0204600F047FA23686FF00C0200
:1015DC001A6015F0400F02D016F0010F28D170BD23
:1015EC00227B002AC8D15A6822F020025A60A36AD2
:1015FC0023F48073A362A36A13F4805FBCD1A36A43
:10160C0043F00103A362B7E7237B002BDAD15368C5
:10161C0023F080035360A36A23F48053A362A36A6C
:10162C0013F4807FCED1A36A43F00103A362C9E710
:10163C00A36A43F48033A3622046FFF783FF236839
:10164C006FF001021A60CAE730B482B00022019236
:10165C0090F82420012A00F08F800346012280F8A4
:10166C0024204A68062A2DD80468606B02EB82029B
:10167C00053A4FF01F0C0CFA02FC20EA0C000D6826
:10168C0005FA02F2024362630A68092A38D91C6817
:10169C00E06802EB42021E3A4FF0070C0CFA02FC17
:1016AC0020EA0C008D6805FA02F20243E2600A6837
:1016BC00103A012A34D90020002283F8242002B0E9
:1016CC0030BC70470C2A0DD80568286B02EB8202DF
:1016DC00233A1F24944020EA04000C6894402043D1
:1016EC002863D1E70568E86A02EB8202413A1F24BD
:1016FC00944020EA04000C6894402043E862C3E75D
:10170C001C68206902EB42024FF0070C0CFA02FC39
:10171C0020EA0C008D6805FA02F202432261C6E74A
:10172C001A681648824205D09A6A42F020029A62E0
:10173C000120C1E7906810F4000F1BD1906840F4B1
:10174C00000090600A68102A01D00020B4E70C4A0F
:10175C0012680C49A1FB0212920C02EB820252009D
:10176C00019202E0019A013A0192019A002AF9D100
:10177C000020A1E700209FE70220A0E70024014001
:10178C000800002083DE1B4330B583B00023019397
:10179C0003689A6812F0010F33D104469A6842F03C
:1017AC0001029A60184B1B68184AA2FB03239B0C7E
:1017BC00019302E0019B013B0193019B002BF9D1AA
:1017CC00FEF77EFE054623689B6813F0010F16D1C9
:1017DC00FEF776FE431B022BF5D923689B6813F0AA
:1017EC00010FF0D1A36A43F01003A362E36A43F044
:1017FC000103E362002384F82430012002E000207E
:10180C0000E0002003B030BD0800002083DE1B4345
:10181C0090F82430012B68D010B50446012380F8D1
:10182C002430FFF7B1FF00285BD1A36A23F4407387
:10183C0023F0010343F48073A36223682C4A934280
:10184C0027D0A26A22F48012A2625A6812F4806F26
:10185C0005D0A26A22F4405242F48052A262A26ADB
:10186C0012F4805F2BD0E26A22F00602E2620022C0
:10187C0084F824206FF002021A6023689A6802F43C
:10188C006022B2F5602F1DD09A6842F480129A60E3
:10189C002AE0A2F58062526812F4702FD1D0A26AAD
:1018AC0042F48012A262134A526812F4806FD6D0AE
:1018BC00A26A22F4405242F48052A262CFE7002284
:1018CC00E262D4E70A4A934204D09A6842F4A00236
:1018DC009A6009E0A2F58062526812F4702FD3D19D
:1018EC00F3E7002384F8243010BD0220704700BFBA
:1018FC00002801400024014038B503689A6812F0B2
:10190C00010F01D1002038BD04469A6822F0010273
:10191C009A60FEF7D5FD054623689B6813F0010F0E
:10192C0013D0FEF7CDFD431B022BF5D923689B6822
:10193C0013F0010FF0D0A36A43F01003A362E36A23
:10194C0043F00103E3620120DDE70020DBE7000048
:10195C0000287BD070B50446836A002B4DD02046FE
:10196C00FFF7CAFFA36A13F0100369D1002867D1EF
:10197C00A26A22F4885222F0020242F00202A2620F
:10198C006268E1690A43217B42EA4102A568B5F528
:10199C00807F02D0012D36D01D46267D012E35D0FC
:1019AC002668716821F46941294371602568AE6825
:1019BC00274931401143A960A168B1F5807F01D05E
:1019CC00012902D12369013B1B052568E96A21F431
:1019DC0070010B43EB62236899681E4B0B409A42D3
:1019EC0025D0A36A23F0120343F01003A362E36A29
:1019FC0043F00103E362012027E0C36280F8243046
:101A0C00FFF784FCABE74FF48075C6E731B9A169E9
:101A1C00013945EA413141F40065C1E7A16A41F061
:101A2C002001A162E16A41F00101E162B8E7002303
:101A3C00E362A36A23F0030343F00103A36204E00F
:101A4C00A36A43F01003A362012070BD012070470C
:101A5C00FDF7E1FFFE0E1FFF7047000000B583B0DD
:101A6C000A4B5A6942F001025A615B6903F00103A7
:101A7C000193019B002211460B20FFF7BDFB0B20AD
:101A8C00FFF7F2FB03B05DF804FB00BF001002404F
:101A9C0008B50A480A4B03604FF4E1334360002356
:101AAC008360C36003610C2242618361C36100F0F7
:101ABC003FF900B908BDFEF769FBFBE7B000002059
:101ACC000038014030B587B0002302930393049390
:101ADC00059302681E4B9A4201D007B030BD03F546
:101AEC0058439A6942F480429A619A6902F480429E
:101AFC000092009A9A6942F008029A619B6903F07D
:101B0C0008030193019B40230293022303930323B5
:101B1C000593104D02A92846FFF7F4F88023029391
:101B2C0000240394049402A92846FFF7EBF80A4A10
:101B3C00536843F0E06343F00403536022462146AC
:101B4C002520FFF759FB2520FFF78EFBC5E700BFCB
:101B5C0000380140000C014000000140026802F115
:101B6C000C0353E8003F23F490730C3242E800312D
:101B7C000029F3D1026802F1140353E8003F23F06B
:101B8C000103143242E800310029F3D1036B012B1D
:101B9C0005D0202380F8423000230363704702688D
:101BAC0002F10C0353E8003F23F010030C3242E81F
:101BBC0000310029F3D1ECE790F84130DBB2212B56
:101BCC0001D0022070478368B3F5805F17D0036A99
:101BDC005A1C02621A7803685A60C38C9BB2013B90
:101BEC009BB2C3844BB90268D36823F08003D360E3
:101BFC000268D36843F04003D36000207047036948
:101C0C00002BE4D1036A1B880268C3F308035360FA
:101C1C00036A02330362E0E710B5044602681369F5
:101C2C0023F44053C1680B43136183680269134367
:101C3C0042691A430168CB6823F4B05323F00C03B8
:101C4C001343CB600268536923F4407381690B43DF
:101C5C0053610268134B9A4220D0FEF73BFF0246B9
:101C6C0002EB820202EB820263689B00B2FBF3F28E
:101C7C000D48A0FB02314909642303FB11231B010E
:101C8C003233A0FB03035B0903F0F00202EB0112F9
:101C9C0003F00F03216813448B6010BDFEF72AFF7D
:101CAC000246DDE7003801401F85EB512DE9F84372
:101CBC0005460F4616469946DDF820802B681C68B1
:101CCC0037EA04040CBF01240024B4422DD1B8F12E
:101CDC00FF3FF3D0B8F1000F05D0FEF7F1FBA0EBFE
:101CEC0009004045EAD92A6802F10C0353E8003F89
:101CFC0023F4D0730C3242E800310029F3D12A6866
:101D0C0002F1140353E8003F23F00103143242E8BC
:101D1C0000310029F3D1202385F8413085F8423079
:101D2C00002385F84030032000E00020BDE8F88354
:101D3C0060B310B5044690F8413013B3242384F8F3
:101D4C0041302268D36823F40053D3602046FFF758
:101D5C0063FF2268136923F490431361226853696B
:101D6C0023F02A0353612268D36843F40053D360F1
:101D7C0000206064202384F8413084F84230606392
:101D8C0010BD80F84030FFF79DFED7E7012070476B
:101D9C002DE9F04182B01E4690F84130DBB2202B89
:101DAC004BD104460D46904600294AD00AB9012071
:101DBC0044E000234364212380F84130FEF780FB8C
:101DCC000746A4F82480A4F82680A368B3F5805FA6
:101DDC0002D04FF000080FE02369FBB14FF0000870
:101DEC000AE038F8023B2268C3F308035360E28C24
:101DFC0092B2013A92B2E284E38C9BB28BB1009620
:101E0C003B46002280212046FFF750FFD8B9002D19
:101E1C00E7D015F8012B23685A60E8E7A84600259F
:101E2C00EAE700963B46002240212046FFF73EFFA2
:101E3C0058B9202384F8413000E0022002B0BDE8FC
:101E4C00F0810120FAE70320F8E70320F6E770475A
:101E5C0008B50168CA6822F04002CA60202280F8E6
:101E6C004120FFF7F4FF002008BD7047704708B50C
:101E7C00406A0023C385C384FFF7F8FF08BD704791
:101E8C0090F84230DBB2222B69D18368B3F5805FC6
:101E9C004FD0826AB3F5805F04D0002B56D1036912
:101EAC00002B53D103685B681370836A0133836220
:101EBC00C38D9BB2013B9BB2C385002B51D100B5A6
:101ECC0083B00268D36823F02003D3600268D36820
:101EDC0023F48073D3600268536923F001035361C8
:101EEC00202380F8423000234363036B012B33D152
:101EFC0000230363026802F10C0353E8003F23F054
:101F0C0010030C3242E800310029F3D103681A683F
:101F1C0012F0100F06D0002201921A6801925B6831
:101F2C000193019B818DFFF7AAFF002003B05DF8A0
:101F3C0004FB0269002AACD1826A03685B68C3F3B4
:101F4C0008031380836A02338362B1E703685B681A
:101F5C0003F07F031370A8E7FFF787FFE5E7022084
:101F6C00704700207047000030B583B0044602680B
:101F7C001368D068516913F00F0505D113F0200FC9
:101F8C0002D010F0200F19D12DB111F0010119D18F
:101F9C0010F4907F16D1216B01297DD013F0800FA6
:101FAC0003D010F0800F40F0188113F0400F03D0D5
:101FBC0010F0400F40F0158103B030BD2046FFF704
:101FCC005FFFF9E713F0010F06D010F4807F03D008
:101FDC00626C42F00102626413F0040F04D019B178
:101FEC00626C42F00202626413F0020F04D019B169
:101FFC00626C42F00402626413F0080F07D010F018
:10200C00200F00D119B1626C42F008026264626C5C
:10201C00002AD1D013F0200F02D010F0200F29D1BC
:10202C0023685B6903F04003626C12F0080F00D167
:10203C0063B32046FFF792FD23685B6913F0400FF2
:10204C0020D0226802F1140353E8003F23F0400330
:10205C00143242E800310029F3D1E36B73B1634AC7
:10206C005A63E06BFEF7C8FF0028A5D0E06B436B0A
:10207C009847A1E72046FFF703FFD1E72046FFF77B
:10208C00F5FE99E72046FFF7F1FE95E72046FFF7AE
:10209C00EDFE002363648FE713F0100F3FF47EAF67
:1020AC0010F0100F3FF47AAF0023019313680193E3
:1020BC0053680193019B536913F0400F51D0E26BAD
:1020CC0013685B689BB2002B3FF476AFA18D9942ED
:1020DC007FF672AFE3859369202B37D0226802F12B
:1020EC000C0353E8003F23F480730C3242E80031B8
:1020FC000029F3D1226802F1140353E8003F23F0C6
:10210C000103143242E800310029F3D1226802F1B4
:10211C00140353E8003F23F04003143242E800312B
:10212C000029F3D1202384F8423000232363226852
:10213C0002F10C0353E8003F23F010030C3242E889
:10214C0000310029F3D1E06BFEF732FF0223636309
:10215C00A18DE38D9BB2C91A89B22046FFF78FFE81
:10216C002AE7A18DE38D9BB2C91A89B2E38D9BB28C
:10217C00002B3FF421AF00293FF41EAF226802F17F
:10218C000C0353E8003F23F490730C3242E8003008
:10219C000028F3D1226802F1140353E8003F23F026
:1021AC000103143242E800300028F3D1202384F8D4
:1021BC00423000232363226802F10C0353E8003FF2
:1021CC0023F010030C3242E800300028F3D1022334
:1021DC0063632046FFF753FEEEE62046FFF7ECFC68
:1021EC00EAE62046FFF734FEE6E600BF7B1E000859
:1021FC00FFF75CF80B480C490C4A002302E0D4585A
:10220C00C4500433C4188C42F9D3094A094C002336
:10221C0001E013600432A242FBD300F00FF8FDF78B
:10222C00F9FF7047000000200C000020002300087C
:10223C000C000020F8000020FEE7000070B500261E
:10224C000C4D0D4C641BA410A64209D100F022F8D1
:10225C0000260A4D0A4C641BA410A64205D170BD81
:10226C0055F8043B98470136EEE755F8043B984780
:10227C000136F2E7F8220008F8220008F8220008DC
:10228C00FC22000803460244934200D1704703F835
:10229C00011BF9E7F8B500BFF8BC08BC9E467047B7
:0C22AC00F8B500BFF8BC08BC9E467047A7
:1022B80002030405060708090A0B0C0D0E0F10107F
:1022C8000102000002030405060708090A0B0C0DA9
:1022D8000E0F1010010200000000000000000000B6
:1022E80001020304060708090000000001020304B4
:0422F8007501000864
:0422FC004D01000888
:0C23000001000000100000000024F400A8
:04000005080021FDD1
:00000001FF
